:040000006DEF00F0B0
:100008005B82FACF01F0FBCF02F0D9CF03F0DACF51
:1000180004F00E01BDA913EF00F015EF00F020EF7A
:1000280000F0C5A91AEF00F01CEF00F020EF00F077
:1000380024EC8DF063EF00F0F2AC25EF00F027EF31
:1000480000F063EF00F0C0AD2CEF00F02EEF00F0F1
:1000580045EF00F0C8AD33EF00F035EF00F045EFA5
:1000680000F002D843EF00F00500FA6E0001DC5101
:10007800FD6EDD51FE6EDE51FF6EFA50120063EF29
:1000880000F0C0AF4AEF00F04CEF00F063EF00F073
:10009800C8AF51EF00F053EF00F063EF00F002D863
:1000A80061EF00F00500FA6E0001D951FD6EDA51DA
:1000B800FE6EDB51FF6EFA50120063EF00F004C0D1
:1000C800DAFF03C0D9FF02C0FBFF01C0FAFF5B9251
:0600D800110005EF8CF0A1
:10F2F2000003A46E166D41F48F956AA1E15CEBB137
:10F302002AA0B4168262715D0BBE01EB4A615442BF
:10F3120098766398B8604AE11727993FCE9D889BFB
:10F322004B6D31C7E7BAA26688B5B4D2B56BD8CDFA
:10F33200915BEAD29C2972CBEB1E60E7263FF5FC7B
:10F342006CD3110CA951304CD377372B6F13897FB3
:10F352004422A7CCFA550990A2C60E9E9FBCFA5928
:10F362002FD636C2FD787247ED39D120C2E74CFB69
:10F37200746C5126B6F97A570D98B2E64E1E9F9DCF
:10F38200BCD324CAF76C5A1DACB0F44B148B94AAAC
:10F39200B7CDF96162460E9E9F92A8E054F939D129
:10F3A2000163A54274EB816AA69A371F8A8170F9BC
:10F3B200D03CD3CEEAF5D25C7DC2763D405ED9C662
:10F3C20003111966F2A7D2FAA2AFF46C026A5A06C6
:10F3D20000E0729391907B1980BB0B9ECC9A50C92E
:10F3E2008091298EC1E4C4FBB79BF5F857DEE93959
:10F3F20071BC61553408E1B276ACB750A5CCA927EF
:10F40200960D31898A004C46171C83B247088FFE3D
:10F41200E955DF0749B7A4D09687D01A06B7DA971D
:10F42200A62E9D2F6FC7B08D7A05990728802B379E
:10F43200CE4B475A4F2116F4EA445C8F37199E4A45
:10F442000A7E7CDA09D8B9048F68CC6E8D6D46B419
:10F4520071E41350D227A51486C68CF819C4C6B31A
:10F46200AEBC7A939AF4599EF63F7F92219DECA707
:10F47200E963A6B839FBD68E4C0DA81EF663AF5DC4
:10F482006E1213CC84CBCB179999A93335F899D442
:10F49200E2479B3B25ED9BE17005B9C0BE9BEEFAAE
:10F4A200D585E2653C77444B247F68D6ACBD2220EB
:10F4B2004682EC98E7C1495150266DA0DEA1BBB14E
:10F4C2005A6F2B2EAAD47AB9D47BECE7B17979A101
:10F4D2001BA2A5EAB0A254EA2667B4FFBE8ABF64A3
:10F4E2002A5E6F87D75D69E79CEBE740E992ADC979
:10F4F200A6DE6FED461FF54410F28E732FFFC89FF4
:10F50200F56941543E3AF4E8F360AEE03C5CDF5EFC
:10F51200D9D3D8DB56CBF62ACC8D1F110AB5BD75CF
:10F522004022D759262F1C1DF878A3FAC8B40FBC65
:10F532001951F999B10160D326637952C9DD692560
:10F54200E5CA6063170BE00812A205E60D502D9C78
:10F552009B7C47EC906F6C2FF1E21181D383F028F2
:10F56200734F22C953ACF41EEFCB27FDEE6B64F44C
:10F57200D90D042DF32B0FC79C8A21F150706F6DAA
:10F5820063D6A3A9BAD57DD482C73C8F69B50BF3E4
:10F59200BE2F76E22CF92545414111D53E1F3C7C18
:10F5A200DB1C4C9EDCF9E1C0EBC1F50A761EFE7154
:10F5B200BB30826013E444F2B267A88325C0F65BD5
:10F5C200635F9A8FBAC0CF0D8C1D4FB84F2B506915
:10F5D200D00D81BFF7BBEFFA483A210DA8E7AA6127
:10F5E200C7947CBC548B738CC776E98C853FF93207
:10F5F2001658553914213134EB10BF08F19677C5EE
:10F602000833C9EC1B7FB8532C2E0A81906CB63F8D
:10F612008A76991EE7567CDDEE15898C656182B08B
:10F62200220BA49DB926603A2C4BB53EF528AF02B9
:10F63200C45287826E1D2F8D39D9D40824BA36CD93
:10F6420009F2F1100369BCD9C5A9DCE7FC75C5A9AB
:10F65200D3C6CAEECEF8EEDE1D58D7D43B55099577
:10F66200969025168393056AB494042BB72D86F2DF
:10F67200EB3B25F02ECF25236544834C0952A77519
:10F68200C91E77CEC941A1A9556B03467853E4C779
:10F692000C7BDF36234E5116B3CFD397BC9A01A70A
:10F6A200BB6698687C1365AD5063717E9E7FEDF8F2
:10F6B20075508F24BA56092E8F3CF0963A000C2EC4
:10F6C2000C968289DBA9DDE83C08AF86F80AB434DF
:10F6D200E1EB6E683CA1E1A18ACB85C7AC8CD63048
:10F6E200CDBC3BB6285DCC47F816AF1A2E268F3C10
:10F6F200E6F576C459C7C2F5F26EAE2CFBA5AC7A1C
:10F702006ACC8E687D0832DBAE4A458EB6EEFE5A72
:10F712009E7FFF7990A3C8162E04EE5E65EB73E61A
:10F72200BB34C6F5635749297172D79F07AB2B04C7
:10F73200EB2FB158A69D87797D210118ECF293FA3F
:10F74200437B682DE435C15474ECB1BEE31AFE4B21
:10F752006B720FE3782ABAB2BC7C81DB749F1C897E
:10F76200E12B6001B2CD8FCD9981D42AF6CC491A12
:10F77200E130420D1B6D2945F4253DCB2179D00F97
:10F78200F04A662C0953E13023CA9F94DA1498098F
:10F7920025CC2711698CB24CFE6C3A7FBD0403F173
:10F7A2000993FFC5806BC5F079ACD38E1BC9CD70B0
:10F7B200A3381A620E76426402C9D4178456B6621E
:10F7C200FEFA01A4AEA18FA708AB540F81C3D35494
:10F7D2006A5CFB377B042BB91CAB754F8197A2A4E3
:10F7E200F883A5EDE1C00093E7FAE7CCFB252353AC
:10F7F200677E9FBDFC226744EE3C6D28520978D09B
:10F8020094DA767DCBA0DC70D160335154E750623C
:10F8120036BC70563F3CEC06431DC892901D5CF30B
:10F8220060FBB4DF01F0C3F0389F67484AB7D70DD9
:10F83200C9B1FBB69EFE668AC78C62A1B022D8FA15
:10F84200E7CCE4A1B0433C9F9E08C38455C162113A
:10F85200B14128978E495392845D1A21A270219753
:10F862008E2883044BC162F0C0B4A987CFCB57BBAB
:10F872005698F1F71C1BB77DDAA1B043F9DD7BC2C4
:10F8820076CFBFAD9B2395094DB5AB62362EEECA3E
:10F89200559EAF5C0C23873A67CEBD80D387CF8756
:10F8A200FCBA97F9D290D285C88FCDBB95C435C525
:10F8B2003AA14F941553AF38DF4149115CB1308BF7
:10F8C20076560C2CF4B048F64379F9B11C53D32C7C
:10F8D20038CA559EAF5E5F50E6B66FF3FBD532D5A0
:10F8E200AAFB81FA266F9FCFCF4D18416606440AC4
:10F8F200DEF509D8C7216A2035B3379D2E7E602BED
:10F902001F6945FD47B67FCDEA955C57A2AD0BE274
:10F912003DAC62B61EEE091C5924E4A4CF08741251
:10F92200808886803B26B964D08700FA4FFCDB07CB
:10F932004CDFD458CEC30B2E788A7D40B6F865359D
:10F94200E833C5087345E9D41162E494D90D6A8598
:10F95200744421A3D00852C4AC3885AA139EFE4D2C
:10F962004CF3B76D51D7FD2885250A634EDF8075AC
:10F972001D295245811401829FC08DA356A3485967
:10F9820015F1CC724638FA1813A68D77C2576C1946
:10F99200311E32735F8C306E158DE0CF744A20EBCE
:10F9A2003A36D2F89D16BF5D0575B7606E01497291
:10F9B200A42F7BECDA39698FE2E07D33524441A116
:10F9C20088245EE9A2617FA654A8263F3CD7B351A2
:10F9D200F7BF7A6647A9B853366C2F2A054E0E76C2
:10F9E200EA3E5F225CD786FEBEE1D8EFF5670B6385
:10F9F200E576EC66A641FE3602D07CE6CED7B9EFBC
:10FA02000343BC0DB9CEBD2501EEA0AB28757C9A8F
:10FA1200328E1EB3582D872A6E88523953D8DA98FF
:10FA2200AD907FFA6045A99911922611FFDAAF2BAA
:10FA320075568D45C18F622F0127FB9226872D8730
:10FA420014B556A96884AB8B56F38C15568751A40E
:10FA5200D8D4A76D68C64DB1EF0D18A3405D064915
:10FA6200C9E2ED072FE08BFAE939FF1207595EF27E
:10FA7200BDFEDD5B5C22718B114202AB0A9A17ABB1
:10FA82007C65170AC89986ACB022E70B00559A111B
:10FA9200BE0512241F2C7B518E6BA2344D29389740
:10FAA200C48ABD6B2136DCBCEA5FB89A17B47C9776
:10FAB20006FEBEE7F9AD502D7E68F37BD7F1881DB7
:10FAC200A7A5E41CE4B72CFAF37B2B933D0F5C252E
:10FAD2006B8959BF02EFA0849E5EDB5C7A52ABEA6F
:10FAE200093656B832F9D3D83B7BEB1C0629C6E857
:10FAF200D22F7D73F57733631D4F3DC6CCC7E4A487
:10FB020015017CFC6C5DD958727FE88DC7AA6E889E
:10FB1200B3DA9554C2896E3731451A50AF5C0C2363
:10FB22008744249BF45CD31A8834739645364DA4DB
:10FB320003EA89F99ED0835FC39825AA814B728517
:10FB42004C42A246DED9A440FB1A17993E30630903
:10FB520010B760B667DC9BD77DDABEB3940BA36F98
:10FB6200C8B909FEBEE4D8FCDA5A97B79D4C53B423
:10FB72004BC9BD5ABE92D66C7818575116A0C23BDB
:10FB82005A9D414FBD99F179336C748B1029EF3234
:10FB920047ADDDCBAD50E0D899D8630C47A4824085
:10FBA200E08469D5169004D458CDB2028AEB3C1A8F
:10FBB2004AFC8BDCFD4470C45617C52A13D549D9BB
:10FBC2001272243C589B9AA74C5B73812A08FCBA98
:10FBD200B6AB2754A20C9009D961084F95A00468CE
:10FBE20094899596F1C6504C98D069B542E24A8AFA
:10FBF200FE9E63AD2FB52F01DB929BEC5244CF0CDE
:10FC0200BB1C98472F9A21DB747F119FE107DC7A96
:10FC120015C681C3CC5539511A47527BF3342AEAAF
:10FC2200C464287B7BE5C830639B8A511FD2640978
:10FC32001B8D6EF48E92FA1E7FA12A4646E683E65B
:10FC420006C170A285494D62E07F160FDD7FB8794B
:10FC52004F5385C876BC832D1AECF1E941696CF2E9
:10FC62000F761A7D8A93546CE3E50B454BC35568B6
:10FC72004EC25B6F1B898373EFB8FE03ECDBC8FBDC
:10FC820083CCF04A74C14BA10AFDF2EF4D501E56CF
:10FC920026249F777F58C2403B551585CBA2B62EAE
:10FCA200817AD03C50F56B41E2228931DEC33CB906
:10FCB200787DE9D01A004556E59FBF0811E5070C8B
:10FCC2004394928442286675DB862FFE1C8F859DA5
:10FCD20019F227188B66549AE3E51434FEA7F8B29A
:10FCE200DAAA02BFCA97993AE2772B550E32F8EC9C
:10FCF2007F2B09F1499002D46E81FEF94F4DF9C76D
:10FD0200EEE137088E68B427DD674CE9685DDD6394
:10FD1200189F99A2150854A5F7136055B5491813F1
:10FD22000439B4F5376B8AE62F6B57727086B3F3DA
:10FD3200826A66D041D2FF5BE0EFC6739AE311F3A9
:10FD4200554641A08624BF2B44856B14EA16399A86
:10FD52002B49B0FE058C46C72F4E96B239D53FFAD5
:10FD6200056841EACF7B26BC3BE8C8960D7C014280
:10FD72005100D709A34344AB438F41BC3BC98AA975
:10FD8200CBC8DBF6FCD31968B8C08F0832F1EC841B
:10FD9200801EB929120C29CC9CD010A7D68AE9F66C
:10FDA200FA8D7E952E57CF8E386B35F02FA64F2ABF
:10FDB2007B4B1E628178B048407FDB7F4E1B8FF801
:10FDC2000D1F28089562C0EA94F8D492A6B732BAF9
:10FDD20036C2F8665789448A9B6E3998C28662B8E1
:10FDE20002064DEB7FFDD918E13C529180E9E541D5
:10FDF200FF12E643FA69F83BBA48D1A80F3C2E5EDF
:10FE0200125897255E1529F00533C131C5AF876BAE
:10FE12009FEE390D127644EBF659716EE0D678BC3E
:10FE2200D991261728EA02B496C535D931D2574856
:10FE32004B69A3655BF3BD7946B043F6AC9B44EDD9
:10FE420081B4A0B5A0B148020801D011AFE65DC8E7
:10FE52005588BA43E34D3C81B6891A4AFB6ADD886C
:10FE62007DA18B77DF959535388077DCB0EB2BC899
:10FE720087E8022DD9B30FF1A1E703B529F6F310F4
:10FE820092E230D2868591D8B5AF5B73234362C1CB
:10FE92006628B4AD5F785305695022C60E9E9F9DB9
:10FEA200B8D3056950036529B1E042E74CFB550917
:10FEB20090A2C6EF3DF872662FDC3AF64FFD59303C
:10FEC200E227CCFB55097141E121A1A1C0E325A99B
:10FED200D022C6EF5C1BB4EA562EBFFC5B34CB14B7
:10FEE2008B94AAB7EC5A36CF1CBAF69FDC35F34195
:10FEF200444E53393830302055706C6F6164696EEE
:10FF020067206669726D776172652E2E2E0A00492E
:10FF12006E76616C69642050726F647563742049F7
:10FF2200443A20307825580A004F70746963616C36
:10FF3200204368697020496E697469616C697A65E9
:10FF4200640A0050726F64756374204944207465BA
:10FF52007374206661696C65640A0053524F4D20C8
:10FF6200435243206572726F723A20307825580AE4
:10FF7200004572726F723A206D6F74696F6E3D3018
:10FF82007825580A006D6F74696F6E3D2825642CC0
:10FF9200202564290A005265766973696F6E2049CB
:10FFA20044004F62736572766174696F6E002573E7
:10FFB200203A20307825580A0050726F64756374B5
:10FFC20020494400436F6E66696720494900436FC8
:10FFD2006E66696720495600436F6E6669672049FD
:10FFE20000436F6E66696720560053524F4D204999
:0EFFF20044004D6F74696F6E006C6C730000FC
:020000040001F9
:1000000048C0D9FF49C0DAFFDECFF6FFDDCFF7FFEA
:10001000000EF86E0800F550250AD8A412EF80F003
:1000200014EF80F0BAEF81F048C0D9FF49C0DAFF81
:10003000DE2A000EDD22000E00017B6F000E7A6FBB
:100040007AC057F07BC058F07C697D6948C0D9FF01
:1000500049C0DAFFDECFF6FFDDCFF7FF000EF86E06
:100060000800F550640AD8B438EF80F03AEF80F019
:100070004EEF80F048C0D9FF49C0DAFFDECFF6FF6F
:10008000DDCFF7FF000EF86E0800F550690AD8A41E
:100090004CEF80F04EEF80F08EEF80F048C0D9FF3B
:1000A00049C0DAFFDE2A000EDD224AC0D9FF4BC06C
:1000B000DAFFDFCF4CF0020EDE26DFCF4DF0000E70
:1000C000DD224CC0D9FF4DC0DAFFDECFA8F0DDCF76
:1000D000A9F0000EA9BFFF0EAA6FAB6FAC6FAD6F9A
:1000E000AE6FAF6F46C022F047C023F0A8C024F027
:1000F000A9C025F0AAC026F0ABC027F0ACC028F0FC
:10010000ADC029F0AEC02AF0AFC02BF0D8EC81F022
:1001100022C046F023C047F0D7EF81F048C0D9FF96
:1001200049C0DAFFDECFF6FFDDCFF7FF000EF86E35
:100130000800F550730AD8B4A0EF80F0A2EF80F069
:10014000BDEF80F048C0D9FF49C0DAFFDECF05F02F
:10015000DDCF06F0FB0E076EFF0E086E000E0A6E76
:10016000030E096E16EC88F005500610D8A4BBEFFC
:1001700080F0BDEF80F009EF81F048C0D9FF49C0A1
:10018000DAFFDECFF6FFDDCFF7FF000EF86E0800D6
:10019000F550730AD8B4CFEF80F0D1EF80F0D8EFEC
:1001A00080F0000E0001BC6F030EBB6FDDEF80F02E
:1001B000000E0001BC6F010EBB6F48C0D9FF49C0E3
:1001C000DAFFBB51DE26BC51DD224AC0D9FF4BC04D
:1001D000DAFFDFCF4CF0020EDE26DFCF4DF0000E4F
:1001E000DD224CC0D9FF4DC0DAFFDECFB8F0DDCF45
:1001F000B9F046C010F047C011F0B8C012F0B9C055
:1002000013F097EC84F010C046F011C047F0D7EF20
:1002100081F048C0D9FF49C0DAFFDECFF6FFDDCF5D
:10022000F7FF000EF86E0800F550780AD8B41BEFFF
:1002300081F01DEF81F031EF81F048C0D9FF49C056
:10024000DAFFDECFF6FFDDCFF7FF000EF86E080015
:10025000F550580AD8A42FEF81F031EF81F082EFEA
:1002600081F048C0D9FF49C0DAFFDECFF6FFDDCF0D
:10027000F7FF000EF86E0800F5CFBAF048C0D9FFBE
:1002800049C0DAFFDE2A000EDD224AC0D9FF4BC08A
:10029000DAFFDFCF4CF0020EDE26DFCF4DF0000E8E
:1002A000DD224CC0D9FF4DC0DAFFDECF4EF0DDCFEE
:1002B0004FF04EC0B0F04FC0B1F00001B26BB36B65
:1002C000B46BB56BB66BB76B46C022F047C023F07A
:1002D000B0C024F0B1C025F0B2C026F0B3C027F002
:1002E000B4C028F0B5C029F0B6C02AF0B7C02BF0D2
:1002F000BAC02CF047EC83F022C046F023C047F090
:10030000D7EF81F048C0D9FF49C0DAFFDECFF6FF52
:10031000DDCFF7FF000EF86E0800F550250AD8A4CF
:1003200094EF81F096EF81F0ADEF81F048C0D9FFF6
:1003300049C0DAFFDE2A000EDD22000E086E250E0F
:10034000076E46C009F047C00AF0A1EC89F0000E24
:10035000476E010E466ED7EF81F048C0D9FF49C005
:10036000DAFFDE2A000EDD22000E476E000E466E1A
:10037000D7EF81F048C0D9FF49C0DAFFDECFF6FFE2
:10038000DDCFF7FF000EF86E0800F550076E086A23
:1003900046C009F047C00AF0A1EC89F048C0D9FF77
:1003A00049C0DAFFDE2A000EDD22A7EF81F012003D
:1003B00024C03CF025C03DF026C03EF027C03FF0F1
:1003C00028C040F029C041F02AC042F02BC043F0C1
:1003D00043BEEDEF81F0F0EF81F0010EF1EF81F01F
:1003E000000E3A6E3B6A3A503B10D8B4FAEF81F0F7
:1003F000FCEF81F00CEF82F0431E421E411E401EB6
:100400003F1E3E1E3D1E3C6C000E3D223E223F2202
:10041000402241224222432200017DBF12EF82F09E
:1004200014EF82F015EF82F057927DBF22EF82F039
:100430007D5106E17C05D8B020EF82F022EF82F0FA
:1004400028EF82F0000E376E010E366E2CEF82F030
:100450007CC036F07DC037F07AC038F07BC039F010
:100460003A503B10D8A437EF82F039EF82F040EFDA
:1004700082F057A43EEF82F040EF82F043EF82F02B
:100480003806D8A03906000E456E1F0E446E000EC9
:10049000A76FC7EF82F04406D8A04506880E442413
:1004A000D96E000E4520DA6E3CC005F03DC006F066
:1004B0003EC007F03FC008F040C009F041C00AF05C
:1004C00042C00BF043C00CF00A0E0D6E000E0E6E13
:1004D000000E0F6E000E106E000E116E000E126EEA
:1004E000000E136E000E146EE1EC86F005C02CF0C9
:1004F00006C02DF007C02EF008C02FF009C030F064
:100500000AC031F00BC032F00CC033F02CC017F031
:100510002EC018F0E5EC8BF01750300FDF6E36066A
:10052000D8A037063806D8A039063CC005F03DC033
:1005300006F03EC007F03FC008F040C009F041C0DF
:100540000AF042C00BF043C00CF00A0E0D6E000E14
:100550000E6E000E0F6E000E106E000E116E000E6D
:10056000126E000E136E000E146E64EC85F005C062
:100570003CF006C03DF007C03EF008C03FF009C0A7
:1005800040F00AC041F00BC042F00CC043F045BE41
:10059000D2EF82F0455008E14404D8A0D2EF82F0B7
:1005A000D4EF82F004EF83F03C503D103E103F103A
:1005B0004010411042104310D8A4E1EF82F0E3EF65
:1005C00082F04BEF82F037BEF0EF82F0375006E159
:1005D0003604D8B0EEEF82F0F0EF82F04BEF82F00D
:1005E00039BEFBEF82F0395008E13804D8A0FBEFA8
:1005F00082F0FDEF82F004EF83F057B202EF83F058
:1006000004EF83F04BEF82F03A503B10D8A40BEF8D
:1006100083F00DEF83F014EF83F057A412EF83F013
:1006200014EF83F032EF83F04406D8A045063A5029
:100630003B10D8A41EEF83F020EF83F026EF83F069
:10064000000E356E2B0E346E2AEF83F0000E356EE1
:100650002D0E346E880E4424D96E000E4520DA6EBD
:1006600034C0DFFF22C017F023C018F0880E4424E6
:10067000196E000E45201A6E38C01BF039C01CF0F0
:10068000F4EC88F017C022F018C023F0120000012B
:100690007DBF4DEF83F04FEF83F050EF83F0579223
:1006A0007DBF5DEF83F07D5106E17C05D8B05BEF47
:1006B00083F05DEF83F063EF83F0000E366E010E82
:1006C000356E67EF83F07CC035F07DC036F07AC0C0
:1006D00037F07BC038F057A870EF83F072EF83F0EB
:1006E00076EF83F0FE0E3726FF0E382224C039F055
:1006F00025C03AF026C03BF027C03CF028C03DF0B2
:1007000029C03EF02AC03FF02BC040F0000E426EE0
:100710001F0E416E000EA76F27EF84F04106D8A090
:1007200042060F0E3914436E446A44BEA1EF83F0B3
:10073000445009E10A0E435CD8A0A1EF83F0A3EF77
:1007400083F0ABEF83F0570E4324436E000E44203A
:10075000446EB1EF83F0300E4324436E000E44200C
:10076000446EBF0E2D6EFF0E2E6E2C502F6E306A13
:100770002D502F262E503022305007E11A0E2F5CBC
:10078000D8B0C5EF83F0C7EF83F0EAEF83F09F0E98
:100790002D6EFF0E2E6E200E43102F6E000E441095
:1007A000306E2D502F262E503022305007E11A0E79
:1007B0002F5CD8B0DEEF83F0E0EF83F0EAEF83F058
:1007C00043C00BF044C00CF0A1EC8BF00BC043F025
:1007D0000CC044F0880E4124D96E000E4220DA6E1F
:1007E00043C0DFFF3506D8A036063706D8A0380646
:1007F00039C02DF03AC02EF03BC02FF03CC030F095
:100800003DC031F03EC032F03FC033F040C034F064
:10081000050E14EF84F0D890343233323232313254
:1008200030322F322E322D32E82E0BEF84F02DC0D5
:1008300039F02EC03AF02FC03BF030C03CF031C050
:100840003DF032C03EF033C03FF034C040F042BE15
:1008500033EF84F0425009E1020E415CD8A033EF3F
:1008600084F035EF84F065EF84F039503A103B1096
:100870003C103D103E103F104010D8A442EF84F0D1
:1008800044EF84F08EEF83F036BE51EF84F03650A3
:1008900006E13504D8B04FEF84F051EF84F08EEFCD
:1008A00083F038BE5CEF84F0385008E13704D8A0FC
:1008B0005CEF84F05EEF84F065EF84F057B263EF95
:1008C00084F065EF84F08EEF83F057A86AEF84F030
:1008D0006CEF84F082EF84F04106D8A04206880EC7
:1008E0004124D96E000E4220DA6E2CC0DFFF410693
:1008F000D8A04206880E4124D96E000E4220DA6E3E
:10090000300EDF6E22C017F023C018F0880E41248D
:10091000196E000E42201A6E37C01BF038C01CF052
:10092000F4EC88F017C022F018C023F0120020EE7B
:10093000E3F010EE15F0060EDBCFE3FFE806FCE275
:1009400012C020F013C021F020502110D8A4ABEF2A
:1009500084F0ADEF84F0B1EF84F0150E206E000E40
:10096000216E20C005F021C006F055EC8BF005C0CB
:1009700024F006C025F07CC022F07DC023F023BE09
:10098000C4EF84F0C6EF84F0DBEF84F02450225CE7
:100990002350800A146E2550800A1458D8A0D3EF33
:1009A00084F0D5EF84F0D7EF84F0DBEF84F022C041
:1009B00024F023C025F024C022F025C023F07AC003
:1009C0001EF07BC01FF057B0E8EF84F0EAEF84F030
:1009D00007EF85F0F8EF84F0000E086E200E076E2A
:1009E00010C009F011C00AF0A1EC89F0244A252AB0
:1009F0001E50245C2550800A146E1F50800A145823
:100A0000D8A005EF85F007EF85F0ECEF84F0000E3D
:100A10001D6E000E1C6E2CEF85F020C0F6FF21C06D
:100A2000F7FF000EF86E0E0EF76403D00800F550C5
:100A300005D0F6CFE1FFF7CFE2FFE750146E145078
:100A4000076E086A10C009F011C00AF0A1EC89F025
:100A5000204A212A1C4A1D2A22501C5C1D50800A53
:100A6000146E2350800A1458D8A039EF85F03BEF5C
:100A700085F00DEF85F057A040EF85F042EF85F04F
:100A80005FEF85F050EF85F0000E086E200E076EC8
:100A900010C009F011C00AF0A1EC89F0244A252AFF
:100AA0001E50245C2550800A146E1F50800A145872
:100AB000D8A05DEF85F05FEF85F044EF85F024C0AE
:100AC00010F025C011F01200000E166E14BE6DEF6E
:100AD00085F06BEF85F07FEF85F0141E131E121E5C
:100AE000111E101E0F1E0E1E0D6C000E0E220F2268
:100AF00010221122122213221422010E166E0CBE95
:100B000086EF85F084EF85F098EF85F00C1E0B1EC4
:100B10000A1E091E081E071E061E056C000E062270
:100B20000722082209220A220B220C22010E161A81
:100B300020EE17F0070EDE6AE806FDE20D500E10FB
:100B40000F1010101110121013101410D8B4ABEFB6
:100B500085F0ADEF85F0FFEF85F0010E156EBBEF70
:100B600085F0D8900D360E360F3610361136123607
:100B700013361436152A14AEC0EF85F0C2EF85F097
:100B8000B1EF85F0D8901736183619361A361B365D
:100B90001C361D361E360D50055C0E5006580F5083
:100BA0000758105008581150095812500A5813503D
:100BB0000B5814500C58D8A0E0EF85F0E2EF85F008
:100BC000F3EF85F00D50055E0E50065A0F50075A90
:100BD0001050085A1150095A12500A5A13500B5A01
:100BE00014500C5A1780D89014321332123211322A
:100BF00010320F320E320D32152EC2EF85F0165024
:100C0000D8B405EF86F007EF86F017EF86F01E1ECA
:100C10001D1E1C1E1B1E1A1E191E181E176C000EF0
:100C2000182219221A221B221C221D221E2217C042
:100C300005F018C006F019C007F01AC008F01BC074
:100C400009F01CC00AF01DC00BF01EC00CF0120011
:100C50007CEC8DF07EEC8DF07CEC8DF05A0E0B6E02
:100C60003A0EC1EC8CF0410E0001C76FEE0EE82E7B
:100C7000FED7C72FFCD700F0020ED6EC8CF0030E87
:100C8000D6EC8CF0040ED6EC8CF0050ED6EC8CF085
:100C9000060ED6EC8CF0F10E0001BF6FFE0EC06F99
:100CA000EBEC8CF07EEC8AF00D0E0001C76FFB0EB2
:100CB000E82EFED7C72FFCD700D0000ED6EC8CF064
:100CC0000001CC6F330ECC19D8A469EF86F06BEF1E
:100CD00086F0D7EF86F03F0ED6EC8CF00001CC19F1
:100CE000FF0AD8A476EF86F078EF86F0CFEF86F093
:100CF000150E0B6E130EC1EC8CF00D0E0001C76FBC
:100D0000FB0EE82EFED7C72FFCD700D0250ED6EC61
:100D10008CF00001CA6F260ED6EC8CF00001CB6F70
:100D2000EF0ECA19D8A497EF86F099EF86F0BCEFC2
:100D300086F0BE0ECB19D8A4A0EF86F0A2EF86F005
:100D4000BCEF86F0010E826F200ED6EC8CF0000115
:100D5000C96FC951F00B0B6E200EC1EC8CF0C80EA0
:100D600000D0E82EFDD72B0E0001BF6FFF0EC06F25
:100D7000EBEC8CF0E0EF86F05D0EBF6FFF0EC06F06
:100D8000CA51CBC0C7F0C86BC7C0C8F0C76BC7118A
:100D9000C16FC851C26FEBEC8CF0E0EF86F0450EEE
:100DA000BF6FFF0EC06FEBEC8CF0E0EF86F0110E22
:100DB000BF6FFF0EC06FCCC0C1F0C26BEBEC8CF00C
:100DC0001200000E166E0CBEEAEF86F0E8EF86F019
:100DD000FCEF86F00C1E0B1E0A1E091E081E071EC5
:100DE000061E056C000E06220722082209220A228E
:100DF0000B220C22010E166E14BE03EF87F001EFDA
:100E000087F013EF87F0141E131E121E111E101E02
:100E10000F1E0E1E0D6C000E0E220F22102211222C
:100E20001222132214220D500E100F101010111048
:100E3000121013101410D8B420EF87F022EF87F0AF
:100E40006AEF87F0010E156E30EF87F0D8900D36FF
:100E50000E360F3610361136123613361436152A62
:100E600014AE35EF87F037EF87F026EF87F00D509F
:100E7000055C0E5006580F50075810500858115076
:100E8000095812500A5813500B5814500C58D8A037
:100E90004CEF87F04EEF87F05EEF87F00D50055E68
:100EA0000E50065A0F50075A1050085A1150095A3E
:100EB00012500A5A13500B5A14500C5AD89014322C
:100EC00013321232113210320F320E320D32152E11
:100ED00037EF87F01650D8B470EF87F072EF87F0D5
:100EE00082EF87F00C1E0B1E0A1E091E081E071E2D
:100EF000061E056C000E06220722082209220A227D
:100F00000B220C2205C005F006C006F007C007F052
:100F100008C008F009C009F00AC00AF00BC00BF0C5
:100F20000CC00CF0120019EC8DF0F28EF28C000E59
:100F30000F01146F000E216F60EC8DF028EC86F02D
:100F400035EC8AF000018751D8B4A9EF87F0ABEFF8
:100F500087F0A2EF87F0000E876F8251D8B4B3EF0D
:100F600087F0B5EF87F0A2EF87F0020ED6EC8CF099
:100F7000566E56AABEEF87F0C0EF87F006EF88F0F6
:100F800056BCC5EF87F0C7EF87F006EF88F056AE86
:100F9000CCEF87F0CEEF87F012EF88F0030ED6EC9F
:100FA0008CF00001CD6FCD51806F816B040ED6ECBB
:100FB0008CF00001CD6FCD51CF6FCE6BCE51801331
:100FC000CF518113050ED6EC8CF00001CD6FCD51C1
:100FD0007E6F7F6B060ED6EC8CF00001CD6FCD518D
:100FE000CF6FCE6BCE517E13CF517F13870EBF6F65
:100FF000FF0EC06F80C0C1F081C0C2F07EC0C3F0E0
:101000007FC0C4F0EBEC8CF0A2EF87F0730E000110
:10101000BF6FFF0EC06F56C0C1F0C26BEBEC8CF01F
:10102000A2EF87F0A2EF87F06DEF00F005C00CF0A3
:1010300006C00DF007C00EF008C00FF00906D8A0DA
:101040000A06092806E10A28D8A429EF88F02BEF20
:1010500088F038EF88F0000E066E000E056E90EFF7
:1010600088F00C4A0D2A0E4A0F2A0906D8A00A0653
:101070000CC0F6FF0DC0F7FF000EF86E0800F5502B
:101080000009D8B446EF88F048EF88F07AEF88F08E
:101090000EC0F6FF0FC0F7FF000EF86E0800F55007
:1010A0000009D8B456EF88F058EF88F07AEF88F04E
:1010B00009500A10D8B45FEF88F061EF88F07AEF3A
:1010C00088F00CC0F6FF0DC0F7FF000EF86E0800A8
:1010D000F5CF0BF00EC0F6FF0FC0F7FF000EF86E55
:1010E0000800F5500B18D8B478EF88F07AEF88F044
:1010F00031EF88F00CC0F6FF0DC0F7FF000EF86E60
:101100000800F5CF0BF00EC0F6FF0FC0F7FF000E82
:10111000F86E0800F5500B5C056E066AD8A006064E
:101120001200600E5A24D96EDA6A000EDA22000E1E
:10113000DF6E0E0198A59FEF88F0A1EF88F0B6EF63
:1011400088F0600E5A24D96EDA6A000EDA220001A5
:10115000DF8202D8B6EF88F00500FA6ED651FD6E38
:10116000D751FE6ED851FF6EFA5012000E0198A3AF
:10117000BCEF88F0BEEF88F0D3EF88F0600E5A2401
:10118000D96EDA6A000EDA220001DF8402D8D3EFCA
:1011900088F00500FA6ED351FD6ED451FE6ED55124
:1011A000FF6EFA501200600E5A24D96EDA6A000EF1
:1011B000DA22DF50D8B4DFEF88F0E1EF88F0F1EF0A
:1011C00088F002D8EFEF88F00500FA6E0001D051E8
:1011D000FD6ED151FE6ED251FF6EFA501200F3EF48
:1011E00088F0ABEC8CF0120057A0F9EF88F0FBEF21
:1011F00088F005EF89F019C010F01AC011F017C07F
:1012000012F018C013F0C3EC8BF01CBE0AEF89F08B
:101210000CEF89F012EF89F01BC020F01CC021F008
:1012200016EF89F0000E216E000E206E000E1F6E6C
:10123000000E1E6E28EF89F0000E086E200E076E5D
:1012400017C009F018C00AF0A1EC89F01E4A1F2A45
:1012500020501E5C1F50800A1D6E2150800A1D58B0
:10126000D8A035EF89F037EF89F01CEF89F057B03F
:101270003CEF89F03EEF89F048EF89F019C010F09B
:101280001AC011F017C012F018C013F0C3EC8BF0A5
:1012900019C005F01AC006F055EC8BF0205005245B
:1012A000176E21500620186E1200000E866E000E7A
:1012B000856E000E826E000E836E000E846E070E29
:1012C0008B6E8768886889688A689F0E0F01216F16
:1012D0001C695F0E146F070E296FFE0E0C6F000E57
:1012E000206F000E286F000E136F000E0B6F000EA4
:1012F0001B6F000E276F000E0A6F000E126F000E9C
:101300001A6F000E1F6F0969116919691E69070EAE
:10131000266F0869106918691D690F0E256F059100
:1013200006810791D60E056E1A0E066E010E076E27
:101330002FEC8DF00E01BD890B0EFA6F0F0E886F2A
:10134000120009500A10D8B4A8EF89F0AAEF89F06A
:10135000B3EF89F009500A10D8A4B1EF89F0B3EFC8
:1013600089F0B8EF89F0075066EC8DF0EBEF89F06B
:1013700020EE09F00950D9260A50DA22DE50DE109C
:10138000D8B4C5EF89F0C7EF89F0E2EF89F020EE1D
:1013900009F00950D9260A50DA2210EE03F009505C
:1013A000E1260A50E222DE50E65CE650800A0F6E2B
:1013B000DE50800A0F58D8B0E0EF89F0E2EF89F0F4
:1013C000EBEF89F020EE03F00950D9260A50DA221B
:1013D000DE2A000EDD2212000E01C09F220E056ED5
:1013E000110E066E010E076E3DEC8DF00E01C09DD4
:1013F000FA0E056E160E066E010E076E36EC8DF0B7
:10140000080E0E019A6F900E986F240E996F080EB9
:10141000966F000E976F080E056E1B0E066E010E7E
:10142000076E4BEC8DF0DE0E056E1A0E066E010E89
:10143000076E44EC8DF0EE0E056E1A0E066E010E70
:10144000076E52EC8DF0000E0001836F000E866F68
:10145000000E856F080EE26F000E5A6E000E596E78
:10146000000E846F0E01C08F1200BB0E0001C76F0B
:10147000FF0EC86F000E95EC8CF0980E0001C76F40
:10148000FF0EC86F010E95EC8CF0F40E0001C76FD3
:10149000FF0EC86F020E95EC8CF0A40E0001C76F12
:1014A000FF0EC86F240E95EC8CF0EC0E0001C76F98
:1014B000FF0EC86F2A0E95EC8CF0DA0E0001C76F94
:1014C000FF0EC86F0F0E95EC8CF0C60E0001C76FB3
:1014D000FF0EC86F100E95EC8CF0D00E0001C76F98
:1014E000FF0EC86F390E95EC8CF0E30E0001C76F4C
:1014F000FF0EC86F2F0E95EC8CF01200020E0B6ED3
:10150000390EC1EC8CF01D0E0B6E130EC1EC8CF07D
:101510000D0E0D6EFC0EE82EFED70D2EFCD7180E0C
:101520000B6E130EC1EC8CF082EC8DF0E20E59ECD8
:101530008DF0050EE82EFED7000E0F6E000E0E6E1B
:10154000F30E0E24F66EF20E0F20F76EF86A000E00
:10155000F8220800F55059EC8DF0050EE82EFED764
:101560000E4A0F2AFE0E0E5C0B0E0F58D8A0BBEFD2
:101570008AF0BDEF8AF0A0EF8AF080EC8DF01200C7
:1015800052C0BDF053C0BEF0000E0001796F000ED6
:10159000786FDEEF8AF050C046F051C047F0BD0EC4
:1015A000486E000E496E54C04AF055C04BF000EC36
:1015B00080F046500001782747507923BDC0F6FFE0
:1015C000BEC0F7FF000EF86E0800F5500009D8A461
:1015D000ECEF8AF0EEEF8AF0CBEF8AF078C050F0B3
:1015E00079C051F01200066E000E076E080E086EEC
:1015F000859A06BEFEEF8AF002EF8BF0056A052A97
:1016000003EF8BF0056A053A054605468550051837
:10161000BF0B0518856ED8900636D89007368FBE5A
:1016200014EF8BF017EF8BF0010E18EF8BF0000E1C
:101630000712858A00F008060850D8A422EF8BF024
:1016400024EF8BF0F8EF8AF007501200056E0001CE
:10165000E251D8B42EEF8BF030EF8BF027EF8BF008
:101660000E01C0BD36EF8BF038EF8BF03CEF8BF006
:1016700005C095FE52EF8BF0C09D700E00018625CF
:10168000D96EDA6A000EDA2205C0DFFF862B070E5C
:1016900086654DEF8BF04FEF8BF051EF8BF0000E26
:1016A000866FE2070E01C08D120005C007F006C06C
:1016B00008F05DEF8BF0054A062A05C0F6FF06C06C
:1016C000F7FF000EF86E0E0EF76403D00800F55019
:1016D00005D0F6CFE1FFF7CFE2FFE7500009D8A42D
:1016E00074EF8BF076EF8BF05BEF8BF00750055CBF
:1016F000056E08500658066E1200080E0001E261E1
:1017000084EF8BF086EF8BF09EEF8BF0700E8525CB
:10171000D96EDA6A000EDA22DF500E01956F0001F1
:10172000852B070E856597EF8BF099EF8BF09BEF7C
:101730008BF0000E856FE22BA0EF8BF00E01C09DA9
:1017400012009F0E0D6EFF0E0E6E0BC00FF00CC040
:1017500010F00D500F260E501022105007E11A0EF7
:101760000F5CD8B0B6EF8BF0B8EF8BF0BEEF8BF01C
:101770005F0E0B140B6E0C6AC2EF8BF00BC00BF0FC
:101780000CC00CF01200000E166E000E156ED4EF99
:101790008BF014C007F0086A12C009F013C00AF0F9
:1017A000A1EC89F0154A162A15501024D96E16504E
:1017B0001120DA6EDF50146E1450D8A4E2EF8BF0D3
:1017C000E4EF8BF0C9EF8BF0120018BEF2EF8BF054
:1017D000185006E11704D8B0F0EF8BF0F2EF8BF061
:1017E00000EF8CF017C019F018C01AF0191E1A1E5D
:1017F000194A1A2A19C017F01AC018F004EF8CF011
:1018000017C017F018C018F01200E60EF66E1A0E88
:10181000F76E010EF86E00EEE3F010EE07F009002F
:10182000F5CFEEFFE550E150FAE100EE60F0480E32
:10183000EE6AE806FDE15A6A596A586A576A5B908F
:101840005B92000193EF87F09F0E076EFF0E086E0C
:10185000200E0510096E000E06100A6E07500926AC
:1018600008500A220A500AE11A0E095CD8A03BEF80
:101870008CF03EEF8CF0010E3FEF8CF0000E056E09
:10188000066A12009F0E076EFF0E086E05C009F073
:1018900006C00AF00750092608500A220A500AE139
:1018A0001A0E095CD8A057EF8CF05AEF8CF0010E9D
:1018B0005BEF8CF0000E056E066A1200BF0E076E1D
:1018C000FF0E086E05C009F006C00AF00750092691
:1018D00008500A220A500AE11A0E095CD8A073EFD8
:1018E0008CF076EF8CF0010E77EF8CF0000E056E29
:1018F000066A12000001DF51E011E111D8B483EF54
:101900008CF085EF8CF092EF8CF002D892EF8CF097
:101910000500FA6EDF51FD6EE051FE6EE151FF6E83
:10192000FA5012000F01059112000001C96F000169
:10193000C951D6EC8CF00001CA6FB00EBF6FFF0E1C
:10194000C06FC7C0C1F0C8C0C2F0CAC0C3F0C46B8A
:10195000EBEC8CF01200680E5A24D96EDA6A000E95
:10196000DA2294CEDFFF5A2A070E5A64BAEF8CF0BF
:10197000BCEF8CF0BEEF8CF0000E5A6E0001842B91
:1019800012000C6E82EC8DF00C50800959EC8DF039
:101990000B5059EC8DF0060EE82EFED700D080ECEF
:1019A0008DF0210EE82EFED700F012000B6E82ECB7
:1019B0008DF00B507F0B59EC8DF000F0000E59ECC0
:1019C0008DF00C6E00F080EC8DF0060EE82EFED748
:1019D00000F00C501200C10E0001C56F000EC66F62
:1019E000000E506E000E516EBFC052F0C0C053F0DA
:1019F000C50E546E000E556EC0EC8AF01200000E3B
:101A00000E01DC6F000EDD6F000EDE6F000EDF6F6B
:101A1000000EE06F000EE16F1200600E0E01D36F3A
:101A2000000ED56F000ED76F020ED96F000ED86F63
:101A300012007AEC8DF0FFEC8CF055EC89F00DEC97
:101A40008DF0ECEC89F012000F0105A12AEF8DF06A
:101A50002CEF8DF02EEF8DF07AEC8CF0120005C09B
:101A6000DFF006C0E0F007C0E1F0120005C0DCF0D6
:101A700006C0DDF007C0DEF0120005C0D9F006C0D8
:101A8000DAF007C0DBF0120005C0D3F006C0D4F0D6
:101A900007C0D5F0120005C0D6F006C0D7F007C0C9
:101AA000D8F0120005C0D0F006C0D1F007C0D2F0C7
:101AB0001200096E0950F3EC8AF00A6E0A50120007
:101AC000889A8A8E8A9C8A9A838A1200066E0650A9
:101AD00026EC8BF01200010E0001876F12000E0140
:0D1AE000989998891200286E756C6C290089
:101AEE00ABEC8CF01200F29A1200838A1200839AE9
:0C1AFE001200838A1200839A120012006A
:020000040020DA
:10000000FFFFFFFFFFFFFFFFFFFFFFFFFFFFFFFF00
:10001000FFFFFFFFFFFFFFFFFFFFFFFFFFFFFFFFF0
:10002000FFFFFFFFFFFFFFFFFFFFFFFFFFFFFFFFE0
:10003000FFFFFFFFFFFFFFFFFFFFFFFFFFFFFFFFD0
:10004000FFFFFFFFFFFFFFFFFFFFFFFFFFFFFFFFC0
:10005000FFFFFFFFFFFFFFFFFFFFFFFFFFFFFFFFB0
:10006000FFFFFFFFFFFFFFFFFFFFFFFFFFFFFFFFA0
:10007000FFFFFFFFFFFFFFFFFFFFFFFFFFFFFFFF90
:10008000FFFFFFFFFFFFFFFFFFFFFFFFFFFFFFFF80
:10009000FFFFFFFFFFFFFFFFFFFFFFFFFFFFFFFF70
:1000A000FFFFFFFFFFFFFFFFFFFFFFFFFFFFFFFF60
:1000B000FFFFFFFFFFFFFFFFFFFFFFFFFFFFFFFF50
:1000C000FFFFFFFFFFFFFFFFFFFFFFFFFFFFFFFF40
:1000D000FFFFFFFFFFFFFFFFFFFFFFFFFFFFFFFF30
:1000E000FFFFFFFFFFFFFFFFFFFFFFFFFFFFFFFF20
:1000F000FFFFFFFFFFFFFFFFFFFFFFFFFFFFFFFF10
:020000040030CA
:0C000000ECFFFFFF9FFFFFFFFFFFFFFF73
:00000001FF
